:03000000020B35BB
:0C0B3500787FE4F6D8FD758163020B7C2C
:1008DA0030360030310031350035300030350033E4
:1008EA00350053656E736F72206572726F720053B2
:1008FA00656E736F722072656164696E670030306D
:10090A00333A003030343A004D656D2D48756D3AF2
:10091A00004D656D2D54656D3A00537461727469AA
:10092A006E672E2E2E00446174613A20006F6B00B0
:10093A004D6F64653A20006175746F006D616E7564
:10094A00616C004E614E00554152543A2000686570
:10095A006C6C6F2D3221003030313A003030323A2F
:10096A00003030353A003030363A003030373A000D
:10097A003030383A003030393A003031303A0030CD
:10098A0031313A003031323A003031333A003031C5
:10099A00343A003031353A003031363A0052582E66
:1009AA002E2E0000000000000000000000000000E1
:0509BA00000000000038
:1012090002370000010E0002350000020800040246
:071219000A0064020C00C88A
:060E27008B498A4A894B49
:100E2D00E4F553F554C3E5549552E5516480F8E566
:100E3D00536480985030AB4CAA4DA94E8554828591
:100E4D005383120520AB49AA4AA94B855082854F81
:100E5D008312055F0550E5507002054F0554E554AA
:060E6D0070C3055380BFB5
:010E7300225C
:060FC1008B498A4A894BAE
:100FC700E4FFFEC3EF9550E54F6480F8EE64809828
:100FD7005021AB4CAA4DA94E8F828E83120520ABB0
:100FE70049AA4AA94B8F828E8312055F0FBF000162
:030FF7000E80D099
:010FFA0022D4
:0A0FFB00D295FB7A0079377D02FCE5
:061005008B498A4A894B69
:10100B00E4FFFEC3EF9DEC6480F8EE64809850150E
:10101B00AB49AA4AA94B8F828E83E412055F0FBF9F
:05102B0000010E80DE53
:01103000229D
:100C2B00754C00754D00754E37754F00755002AB06
:050C3B003BAA3CA93DAD
:060C40008B498A4A894B32
:100C4600755100755204E4FFFEC3EF9550E54F64FD
:100C560080F8EE6480985028E5522FFDE5513EABB2
:100C660049AA4AA94B8D82F583120520AB4CAA4DA1
:100C7600A94E8F828E8312055F0FBF00010E80C9B9
:010C8600224B
:0C0C87008F46AE08AF09EE3395E0FDFC8F
:080C93008F558E548D538C52D5
:100C9B00758902E4F58CAF55AE54AD53AC52EC4DA7
:100CAB004E4F602FE4FFFED28C308DFDC28D0FBFF7
:100CBB0000010EEF64044E70EE74FF2555F555E5FB
:100CCB005434FFF554E55334FFF553E55234FFF537
:030CDB005280C381
:010CDE0022F3
:0A113C00D2A07F017E007D007C0040
:101146008F558E548D538C52758902E555F404F5EE
:091156008CD28C308DFDC28D227B
:10000300E4FDFCC3ED9FEC9E5015E4FBFA0BBB0033
:0F001300010AEB64704A70F50DBD00010C80E42A
:0100220022BB
:1012E500C2A112113CD2A1121146C2A0121146C2CE
:0212F500A12234
:1012F700C2A112113EC2A0121146D2A1121146D2AA
:02130700A02222
:0F131B00C2A012113ED2A1121146C2A1D2A0222D
:0D132A0012113CD2A1121146C2A1D2A02284
:0611BB00EB25E044A0FF5B
:1011C100E4FEEF3392A0D2A1C2A1EF25E0FF0EBE53
:0511D10008F002131BF1
:10115F00E4FBFA12113ED2A1A2A0E4334203EAC388
:10116F0094075004EB25E0FBC2A10ABA08E5AF03D0
:01117F00224D
:0B10BD007C007D0A1205D6E4FB7D07D5
:1010C800AA07A9051212E51211BBAF011211C1AF8F
:1010D800021211C11212F77F017E007D007C00020E
:0210E8000C9367
:04108F00AB05AA07FC
:101093001212E51211BBAF021211C11212E5EB25B8
:1010A300E044A1FF1211C112115FAB0712132A1200
:0910B30012F77F0A121140AF038D
:0110BC002211
:101031008F568B578A588959E55A6022AB57AA585F
:10104100A959120507FFAB5BAD561210C8055674BE
:0F105100012559F559E43558F558155A80DA221A
:101060008F5C8B5D8A5E895FE5606022AD61AF5CFD
:1010700012108FAB5DAA5EA95FEF12054D055C747F
:0F10800001255FF55FE4355EF55E156080DA22CD
:0211F1008F620B
:1011F300E4F563AB62AD63E4FF1210C80563E56316
:05120300C394FF40EE62
:0112080022C3
:10119E00E4F53AE4FBAD3AFF1210C80BAD3AE4FFAA
:0C11AE001210C8053AE53AC394FF40E770
:0111BA002212
:101221008F80C2A6C2A5D2A77F087E007D007C0068
:06123100120C93C2A7227B
:101237008F80D2A6C2A5D2A77F087E007D007C0042
:06124700120C93C2A72265
:060F48007B007A007937FE
:060F4E008B498A4A894B21
:100F5400E4F54CF54DAB49AA4AA94B854D82854C25
:100F640083120520FF601AC3E54D9410E54C64809C
:100F74009480500D121237054DE54D70D8054C8004
:010F8400D498
:010F85002249
:040EBE008E498F4A80
:100EC200E4FBFAEC701FED14600E14600F14601056
:100ED200240370117F80800A7FC080067F94800285
:100EE2007FD4121221E4FAFBC3EB954AE5496480F0
:100EF200F8EA648098500C7F141212210BBB000197
:030F02000A80E57D
:010F050022C9
:040F06007F017E00E9
:040F0A008F828E83C1
:100F0E00E4FBFAAD82AC83FFFE120EBEE4FAFB7573
:100F1E008020D2A6C2A5D2A77F027E007D007C00D3
:100F2E00120C93C2A70BBB00010AEB64104A70DFD0
:0A0F3E00AD82AC83E4FFFE020EBE9C
:101180007F0F1212217F381212217F011212217F4C
:0E119000801212217F061212217F0C02122102
:100D8900AB07AA067C007D64120581EF2430FDE4DF
:100D99003EFCED64304C6007EF2430FF1212377CC3
:100DA900007D64AF03AE021205817E007F0ACFCDBC
:100DB900CFCECCCE120581EF2430FF121237AE020E
:100DC900AF037C007D0A120581ED2430FF02123742
:0513EB00D2AFD2AC22DC
:0C139F00758920758DFD759850D28E2246
:0813BF008F993099FDC29922BB
:0813C7003098FDC298AF992295
:061114008B498A4A894B59
:10111A00E4FDFCAB49AA4AA94B8D828C83120520B7
:10112A00FF600A1213BF0DBD00010C80E67F2F027B
:02113A0013BFE1
:060F86007BFF7D047C00EE
:0A0F8C008B498A4A894B8C4C8D4D2D
:100F9600E4FDFCC3ED954DE54C6480F8EC64809867
:100FA6005018AB49AA4AA94B8D828C83120520FFA3
:0A0FB6001213BF0DBD00010C80D91D
:010FC000220E
:060E74008B3B8A3C893D26
:100E7A00E4FDFC1213C78F3EE53E640D600BE53EB0
:100E8A00640A6005E53EB42F10AB3BAA3CA93D8D30
:100E9A00828C83E412055F8016AB3BAA3CA93D8D88
:100EAA00828C83E53E12055F0DBD00010C80C4AE45
:030EBA0004AF057D
:010EBD002212
:030023000213F0D5
:0313F000C298326E
:0A0CDF008B498A4A894B8C4C8D4DDD
:100CE900E4F550F551C3E551954FE54E6480F8E5BB
:100CF900506480985034AB49AA4AA94B85518285E2
:100D09005083120520FFAD4DE4FB1210C87F047E0D
:100D1900007D007C00120C93054DE54D7002054CD9
:0A0D29000551E55170BF055080BB75
:010D3300229D
:0A0D34008B498A4A894B8C4C8D4D87
:100D3E00E4F550F551C3E551954FE54E6480F8E565
:100D4E00506480985034AF4DE4FD12108FAB49AA19
:100D5E004AA94B855182855083EF12055F7F047E31
:100D6E00007D007C00120C93054DE54D7002054C84
:0A0D7E000551E55170BF055080BB20
:010D88002248
:0D133700754E00754F027D077C00020D34DD
:0D134400754E00754F027D077C00020CDF26
:0D135100754E00754F027D057C00020D34C5
:0D135E00754E00754F027D057C00020CDF0E
:06124D007B007A007937F6
:0D125300754E00754F027D037C00020D34C6
:0D136B00754E00754F027D037C00020CDF03
:061260007B007A007937E3
:0D126600754E00754F027D017C00020D34B5
:0D137800754E00754F027D017C00020CDFF8
:061273007B007A007937D0
:0D127900754E00754F027D0B7C00020D3498
:0D138500754E00754F027D0B7C00020CDFE1
:061286007B007A007937BD
:0D128C00754E00754F027D097C00020D3487
:0D139200754E00754F027D097C00020CDFD6
:10129900E4FD7F0D12108FEF64306006BF3101222B
:0212A9007F3292
:0112AB002220
:0713D700E4FB7D0D0210C8CC
:1012AC00E4FD7F0E12108FEF64306006BF31012217
:0212BC007F327F
:0112BE00220D
:0713DE00E4FB7D0E0210C8C4
:10130900E4FDFF12108FEF64306006BF3101227FC8
:0113190032A1
:01131A0022B0
:0613E500E4FBFD0210C84C
:100DD900121309EF643270457F311213E57BFF7AF4
:100DE9000879DA1213787BFF7A0879DD12136B7FA1
:100DF900301213D77BFF7A0879E01213927BFF7ABE
:100E09000879E31213857F301213DE7BFF7A0879A4
:0E0E1900E612135E7BFF7A0879E91213442279
:1012BF00758901758CB8758A0CD28C308DFDC28CF6
:0312CF00C28D22AB
:1012D200758901758CFF758AF1D28C308DFDC28CB7
:0312E200C28D2298
:0A13AB00D297C2971212BFD2972208
:0A13B5002097FD3097FD2097FD22E0
:1010EA00E4FFFEFDFC3097FD1212D2EF25E0FFEE81
:1010FA0033FE309706EF4401FF80002097FD0DBDB7
:09110A0000010CED64084C70DCDE
:0111130022B9
:1007A70078397C007D007BFF7A0979AD7E007F0276
:1007B7001204E1783B7C007D007BFF7A0979AF7EEC
:1007C700007F021204E11213AB1213B51210EA8E66
:1007D700338F341210EA8E2F8F301210EA8E318F3A
:1007E700321210EA8E2D8F2E1210EA8E0F8F10E51F
:1007F700342530FFE533352FFEE5322FFFE5313E57
:10080700FEE52E2FFFE52D3EFEEF65107003EE652A
:100817000F600FE4FFFE120F0A7BFF7A0879EC02E4
:100827000F4EE4FFFE120F0A7BFF7A0879F9120FC9
:100837004ED3E5349409E533648094804023AE3386
:10084700AF341210BD7F047E007D007C00120C9334
:10085700AE33AF347C007D0A1205D6AF057D088024
:1008670018E4FB7D057F301210C87F047E007D00F1
:100877007C00120C93AF347D061210C87F047E00F3
:100887007D007C00120C93D3E5329409E531648036
:1008970094804023AE31AF321210BD7F047E007DBD
:1008A700007C00120C93AE31AF327C007D0A12053A
:1008B700D6AF057D088018E4FB7D057F301210C890
:1008C7007F047E007D007C00120C93AF327D061200
:0208D70010C847
:0108D90022FC
:1009BF0078397C007D007BFF7A0979B17E007F0258
:1009CF001204E1783B7C007D007BFF7A0979B37ECE
:1009DF00007F021204E1120C897B007A0079391230
:1009EF00133712139F7A097908120F867B007A004A
:1009FF007939121114120C897B007A00793B7D0230
:100A0F007C001210057B007A00793B121351AE0A5D
:100A1F00AF0B120C8D12139F7A09790D120F867B73
:100A2F00007A00793B121114E4FFFE120F0A7BFFCC
:100A3F007A097912120F4E7B007A00793712133729
:100A4F00120F48120F067BFF7A09791B120F4E7B8C
:100A5F00007A007937121351120F48AE0CAF0D12F6
:0F0A6F000C8DAE0AAF0BEE3395E0FDFC020C933D
:100A7E00753931C296C295121180E4FDFCFFFE124B
:100A8E000EBE7BFF7A097924120F4E7D017C00E4A5
:100A9E00FFFE120EBE7BFF7A097930120F4E121135
:100AAE009E120DD97BFF7A097937120F4EAE0CAF1D
:100ABE000D120C8D120F067BFF7A09793A120F4E2A
:100ACE001213098F39E53924D0600B1470107BFF97
:100ADE007A097941801E7BFF7A0979468016AF39F3
:100AEE001212377F087E007D007C00120C937BFF74
:100AFE007A09794D120F4EAE0CAF0D120C8D120FEE
:100B0E00067BFF7A097951120F4E12139F7BFF7AE3
:100B1E00097958120F4EE50D25E0FFE50C33FE3333
:070B2E0095E0FDFC020C93B1
:060026008B3B8A3C893D82
:10002C00783E7C007D007BFF7A0979B57E007F04E9
:10003C001204E178427C007D007BFF7A0979B97E5D
:10004C00007F061204E17548307B007A00793E7D12
:10005C00047C00121005853B4C853C4D853D4E754E
:10006C004F007550047B007A00793E120FC1120FBD
:10007C0006AB3BAA3CA93D120F4E783E7C007D009E
:10008C007BFF7A09796112078AEF703ED295AB3B00
:10009C00AA3CA93D900004120520FF1213E57F0431
:1000AC007E007D007C00120C93754CFF754D09751C
:1000BC004E61E4F54FF550F551755204FB7A007919
:1000CC0042120E27121309020307783E7C007D00B2
:1000DC007BFF7A09796612078AEF7022D295754CEC
:1000EC00FF754D09754E66F54FF550F55175520477
:1000FC00FB7A007942120E27121309020351783E43
:10010C007C007D007BFF7A09796B12078AEF7031D6
:10011C00120FFB120C2B7B007A007937121378121A
:10012C000C897B007A0079377D027C001210051255
:10013C001260120C8912139F7BFF7A09796B0202F1
:10014C00AE783E7C007D007BFF7A09797012078ABD
:10015C00EF7015120FFB121260120C8912139F7B99
:10016C00FF7A0979700202AE783E7C007D007BFF3D
:10017C007A09797512078AEF7031120FFB120C2B6A
:10018C007B007A00793712136B120C897B007A0092
:10019C0079377D027C0012100512124D120C891257
:1001AC00139F7BFF7A0979750202AE783E7C007D45
:1001BC00007BFF7A09797A12078AEF7015120FFB10
:1001CC0012124D120C8912139F7BFF7A09797A0255
:1001DC0002AE783E7C007D007BFF7A09797F1207A6
:1001EC008AEF7031120FFB120C2B7B007A007937DF
:1001FC00121392120C897B007A0079377D027C00F5
:10020C00121005121286120C8912139F7BFF7A09A9
:10021C00797F0202AE783E7C007D007BFF7A097903
:10022C008412078AEF7015120FFB121286120C89BA
:10023C0012139F7BFF7A0979840202AE783E7C0010
:10024C007D007BFF7A09798912078AEF7030120FD3
:10025C00FB120C2B7B007A007937121385120C8958
:10026C007B007A0079377D027C0012100512127324
:10027C00120C8912139F7BFF7A0979898024783EAE
:10028C007C007D007BFF7A09798E12078AEF701E45
:10029C00120FFB121273120C8912139F7BFF7A0937
:1002AC00798E120F887B007A007937020402783E2F
:1002BC007C007D007BFF7A09799312078AEF7054DA
:1002CC00D295AB3BAA3CA93D900004120520FF122D
:1002DC0013D77F047E007D007C00120C93754CFFBD
:1002EC00754D09754E93E4F54FF550F55175520463
:1002FC00FB7A007942120E271212998F467F047EE8
:10030C00007D007C00120C9312139F7B007A007905
:10031C0042020402783E7C007D007BFF7A097998CA
:10032C0012078AEF702ED295754CFF754D09754EDC
:10033C0098F54FF550F551755204FB7A007942123D
:10034C000E27121299120C8712139F7B007A0079D8
:10035C0042020402783E7C007D007BFF7A09799D85
:10036C0012078AEF7053D295AB3BAA3CA93D900083
:10037C0004120520FF1213DE7F047E007D007C003A
:10038C00120C93754CFF754D09754E9DE4F54FF5A8
:10039C0050F551755204FB7A007942120E27121255
:1003AC00AC8F467F047E007D007C00120C931213F0
:1003BC009F7B007A007942803D783E7C007D007BFB
:1003CC00FF7A0979A212078AEF702ED295754CFF2D
:1003DC00754D09754EA2F54FF550F551755204FB4C
:1003EC007A007942120E271212AC120C8712139F4C
:1003FC007B007A007942121114AE0CAF0D120C8DE9
:04040C00C295C2963D
:0104100022C9
:100BC100E4F539F53AC296C295FFFE120F0A7BFF92
:100BD1007A0979A7120F4E120F06C3E53A9407E579
:100BE10039648094805040AE0AAF0B120C8D7B00AB
:100BF1007A0079117D107C00121005E4F50E1213B4
:100C01009FFB7A007911120E748F0EE50ED39400BA
:100C110040C8D2967B007A007911120026053AE588
:090C21003A70B7053980B3C296A0
:010C2A0022A7
:1011D600C2961207A71209BF120C89120BC1AE0CD8
:0B11E600AF0DEE3395E0FDFC020C9312
:0813CF00120A7E1211D680FB08
:100B41000213CFE493A3F8E493A34003F68001F2E8
:100B510008DFF48029E493A3F85407240CC8C333B5
:100B6100C4540F4420C8834004F456800146F6DF84
:100B7100E4800B0102040810204080901209E47EF9
:100B8100019360BCA3FF543F30E509541FFEE49379
:100B9100A360010ECF54C025E060A840B8E493A340
:100BA100FAE493A3F8E493A3C8C582C8CAC583CA6B
:100BB100F0A3C8C582C8CAC583CADFE9DEE780BE23
:0112200000CD
:10041100E709F608DFFA8046E709F208DFFA803ECD
:1004210088828C83E709F0A3DFFA8032E309F608BA
:10043100DFFA8078E309F208DFFA807088828C8322
:10044100E309F0A3DFFA806489828A83E0A3F608D6
:10045100DFFA805889828A83E0A3F208DFFA804CB0
:1004610080D280FA80C680D4806980F28033801087
:1004710080A680EA809A80A880DA80E280CA8033F0
:1004810089828A83ECFAE493A3C8C582C8CCC58368
:10049100CCF0A3C8C582C8CCC583CCDFE9DEE78038
:1004A1000D89828A83E493A3F608DFF9ECFAA9F0B7
:1004B100EDFB2289828A83ECFAE0A3C8C582C8CC0D
:1004C100C583CCF0A3C8C582C8CCC583CCDFEADE26
:1004D100E880DB89828A83E493A3F208DFF980CC88
:1004E10088F0EF60010E4E60C388F0ED2402B40481
:1004F1000050B9F582EB2402B4040050AF23234528
:06050100822390046173E7
:10050700BB010689828A83E0225002E722BBFE02F2
:09051700E32289828A83E4932225
:10052000BB010CE58229F582E5833AF583E0225090
:1005300006E92582F8E622BBFE06E92582F8E222DA
:0D054000E58229F582E5833AF583E49322F4
:10054D00BB010689828A83F0225002F722BBFE018D
:02055D00F32287
:10055F00F8BB010DE58229F582E5833AF583E8F0D2
:10056F00225006E92582C8F622BBFE05E92582C87E
:02057F00F22266
:10058100BC000BBE0029EF8DF084FFADF022E4CC5E
:10059100F875F008EF2FFFEE33FEEC33FCEE9DEC27
:1005A100984005FCEE9DFE0FD5F0E9E4CEFD22ED6D
:1005B100F8F5F0EE8420D21CFEADF075F008EF2FB7
:1005C100FFED33FD4007985006D5F0F222C398FDA8
:0505D1000FD5F0EA2245
:1005D600C2D5EC30E709B2D5E4C39DFDE49CFCEE40
:1005E60030E715B2D5E4C39FFFE49EFE120581C332
:1005F600E49DFDE49CFC800312058130D507C3E42D
:060606009FFFE49EFE22AE
:10060C00E3F5F009E208B5F06D606B80F3E3F5F00B
:10061C0009E608B5F060605E80F387F009E608B57E
:10062C00F054605280F487F009E208B5F048604657
:10063C0080F488828C8387F009E0A3B5F0386036AB
:10064C0080F488828C8387F009E493A3B5F027604B
:10065C002580F388828C83E3F5F009E0A3B5F016CE
:10066C00601480F388828C83E3F5F009E493A3B5DE
:10067C00F004600280F2020737808580E7808E806C
:10068C00D2803C8015806C807E809B80B5808B8076
:10069C00A1804F8070803A02074389828A83ECFAEA
:1006AC00E493F5F0A3C8C582C8CCC583CCE493A36E
:1006BC00C8C582C8CCC583CCB5F070606E80E189AA
:1006CC00828A83E493F5F0A3E208B5F05E605C8067
:1006DC00F289828A83E0F5F0A3E608B5F04D604B11
:1006EC0080F389828A83E0F5F0A3E208B5F03C60E0
:1006FC003A80F389828A83E493F5F0A3E608B5F097
:10070C002A602880F2805389828A83ECFAE493F57C
:10071C00F0A3C8C582C8CCC583CCE0A3C8C582C829
:10072C00CCC583CCB5F004600280E27FFFB5F0024B
:10073C000F2240027F012289828A83ECFAE0F5F0D5
:10074C00A3C8C582C8CCC583CCE0A3C8C582C8CC1D
:10075C00C583CCB5F0D560D380E389828A83ECFA6B
:10076C00E0F5F0A3C8C582C8CCC583CCE493A3C87C
:10077C00C582C8CCC583CCB5F0B160AF80E288F03F
:10078C00ED2402B4040050A3F582EB2402B404005F
:0B079C005099232345822390068573AB
:00000001FF
