:030000000208569D
:0C085600787FE4F6D8FD75817B02089DD8
:1007C60046616E2054656D4F4E203E3D20256400E7
:1007D60020204F4646203C3D2025730053656E730E
:1007E6006F72206572726F720025640048756D2005
:1007F6003D2025642E25640020250054656D203D8E
:100806002025642E2564004300333800333200323D
:1008160031003234004D6F64653A20006175746FA3
:10082600006D616E75616C004E614E00554152540B
:100836003A200068656C6C6F2075617274203830E0
:1008460035310068656C6C6F2D3221002B2B2B0027
:100D440001220102290000034700002F024A00008B
:0C0D54000223000402250064022700C8EE
:060A97008B088A09890AA0
:100A9D00AF0FAE0EC3EF9403EE648094805031E53A
:100AAD000F2403FDE4350EFCC3EF9DEE9C5021ABEE
:100ABD000BAA0CA90D8F828E8312039BAB08AA097A
:100ACD00A90A8F828E831203DA0FBF00010E80C434
:010ADD0022F6
:0C095D00C2A5D2A77F087E007D007C00B0
:080969008F6E8E6D8D6C8C6B9E
:10097100758902E4F58CAF6EAE6DAD6CAC6BEC4D70
:100981004E4F602FE4FFFED28C308DFDC28D0FBF24
:1009910000010EEF64044E70EE74FF256EF56EE5F6
:1009A1006D34FFF56DE56C34FFF56CE56B34FFF5E7
:0309B1006B80C395
:0109B4002220
:0A0D0000D2A07F017E007D007C0080
:100D0A008F6F8E6E8D6D8C6C758902E56FF404F5AC
:090D1A008CD28C308DFDC28D22BB
:10000300E4FDFCC3ED9FEC9E5015E4FBFA0BBB0033
:0F001300010AEB64704A70F50DBD00010C80E42A
:0100220022BB
:100E1900C2A1120D00D2A1120D0AC2A0120D0AC25E
:020E2900A12204
:100E2B00C2A1120D02C2A0120D0AD2A1120D0AD23A
:020E3B00A022F3
:0F0E4F00C2A0120D02D2A1120D0AC2A1D2A0227E
:0D0E6D00120D00D2A1120D0AC2A1D2A022C6
:060D6100EB25E044A0FFB9
:100D6700E4FEEF3392A0D2A1C2A1EF25E0FF0EBEB1
:050D770008F0020E4F20
:100D2300E4FBFA120D02D2A1A2A0E4334203EAC308
:100D330094075004EB25E0FBC2A10ABA08E5AF0310
:010D4300228D
:030CB700E4FBFF5C
:100CBA00AA07A905120E19120D61AF01120D67AF2D
:100CCA0002120D67120E2B7F017E007D007C00024E
:020CDA000969A6
:040C0F00AB05AA0780
:100C1300120E19120D61AF02120D67120E19EB2598
:100C2300E044A1FF120D67120D23AB07120E6D12E4
:090C33000E2B7F0A120D04AF0321
:010C3C002295
:100B82008F108B118A128913E5146022AB11AA12FD
:100B9200A913120382FFAB15AD10120CBA05107423
:0F0BA200012513F513E43512F512151480DA222C
:100BB1008F668B678A688969E56A6022AD6BAF666B
:100BC100120C0FAB67AA68A969EF1203C805667416
:0F0BD100012569F569E43568F568156A80DA224F
:020DC8008F7A20
:100DCA00E4F57BAB7AAD7BE4FF120CBA057BE57BDD
:050DDA00C394FF40EE90
:010DDF0022F1
:100D7C00E4F51FAD1F120CB70BAD1FE4FF120CBA3C
:090D8C00051FE51FC394FF40EAB6
:010D9500223B
:050F4800D2AFD2AC2283
:0C0E7A00758920758DFD759850D28E2270
:080EF2008F993099FDC299228D
:080EFA003098FDC298AF992267
:060CDC008B508A51895281
:100CE200E4FDFCAB50AA51A9528D828C8312039B66
:0D0CF200FF600A120EF20DBD00010C80E63D
:010CFF0022D2
:0A0B1A008B168A1789188C198D1AA2
:100B2400E4FDFCC3ED951AE5196480F8EC64809843
:100B34005018AB16AA17A9188D828C8312039BFF39
:0A0B4400120EF20DBD00010C80D965
:010B4E002284
:060A05008B1B8A1C891DF9
:100A0B00E4FDFC120EFA8F1EE51E640D600BE51E55
:100A1B00640A6005E51EB42F10AB1BAA1CA91D8D23
:100A2B00828C83E41203DA8016AB1BAA1CA91D8DE2
:100A3B00828C83E51E1203DA0DBD00010C80C4AE5F
:030A4B0004AF05F0
:010A4E002285
:03002300020F3C8D
:060F3C00859990C2983275
:100B4F008B668A6789688C698D6AAB66AA67A968A4
:100B5F00120382FF601CAD6AE4FB120CBA7401250C
:100B6F0068F568E43567F567056AE56A70DC05695D
:030B7F0080D822F9
:0B0E9200756A02E4F56B7F07020BB1EC
:070F12007D077C00020B4F7C
:0B0E9D00756A02E4F56B7F05020BB1E3
:070F19007D057C00020B4F77
:0B0EA800756A02E4F56B7F03020BB1DA
:070F20007D037C00020B4F72
:0B0EB300756A02E4F56B7F01020BB1D1
:070F27007D017C00020B4F6D
:0B0EBE00756A02E4F56B7F0B020BB1BC
:070F2E007D0B7C00020B4F5C
:0B0EC900756A02E4F56B7F09020BB1B3
:070F35007D097C00020B4F57
:100E3D00E4FDFF120C0FEF64306006BF3101227F1D
:010E4D003272
:010E4E002281
:060F4200E4FBFD020CBA05
:0C0E8600120E3DBF32057F31120F4222D8
:0A0ED4008F80C2A612095DC2A7229A
:0A0EDE008F80D2A612095DC2A72280
:060D96007B007A00792FBA
:100D9C00120382FF600C120EDE740129F9E43AFA98
:030DAC0080EE22B4
:040A4F008E668F67B9
:100A5300E4FBFAEC701FED14600E14600F146010C9
:100A6300240370117F80800A7FC080067F948002F8
:100A73007FD4120ED4E4FAFBC3EB9567E56664807A
:100A8300F8EA648098500C7F14120ED40BBB00015B
:030A93000A80E5F1
:010A9600223D
:040ADE007F017E0016
:040AE2008F828E83EE
:100AE600E4FBFAAD82AC83FFFE120A4FE4FAFB7513
:100AF6008020D2A6C2A5D2A77F02120963C2A70B85
:100B0600BB00010AEB64104A70E5AD82AC83E4FFDA
:040B1600FE020A4F82
:100DAF007F38120ED47F01120ED47F80120ED47FA3
:090DBF0006120ED47F0C020ED4C2
:1009B500AB07AA067C007D641203FCEF2430FDE43E
:1009C5003EFCED64304C6007EF2430FF120EDE7CF8
:1009D500007D64AF03AE021203FC7E007F0ACFCD1B
:1009E500CFCECCCE1203FCEF2430FF120EDEAE02CA
:1009F500AF037C007D0A1203FCED2430FF020EDEFE
:1004C500D2A2120E3DEF643160030205D9FFFE1280
:1004D5000AE27B007A00792D756A02E4F56B7F03E9
:1004E500120BB17E007F107D007B007A00792F1200
:1004F50004517B007A00792D1207188E6C8F6D756B
:1005050069FF756A07756BC67B007A00792F120043
:1005150082120D96120ADE7B007A00794E120EA821
:100525007E007F107D007B007A00792F12045175C3
:1005350069FF756A07756BD6756C00756D00756E0C
:100545004E7B007A00792F120082120D967FE87E8D
:10055500031200037B007A00792D120718C3E544C6
:100565009FEE6480F8E54364809840097D0D120C88
:10057500B7C2A380237B007A00794E120718D3E512
:10058500449FEE6480F8E543648098500BE4FB7D5E
:100595000D7F01120CBAD2A3D3E5469419E5456443
:1005A500809480400CE4FB7D0E7F01120CBAD2A42E
:1005B50022D3E5469416E545648094805032E4FBE9
:1005C5007D0EFF120CBAC2A4C2A27FF47E011200F6
:1005D50003D2A222E4FD7F0D120C0FEF24D024FFDD
:1005E50092A3E4FD7F0E120C0FEF24D024FF92A4FA
:0105F50022E3
:100DE000758901758CB8758A0CD28C308DFDC28CDA
:030DF000C28D228F
:100DF300758901758CFF758AF1D28C308DFDC28C9B
:030E0300C28D227B
:080F0200C297120DE0D2972204
:0A0EE8002097FD3097FD2097FD22B2
:100C3D00E4FFFEFDFC3097FD120DF3EF25E0FFEE16
:100C4D0033FE309706EF4401FF80002097FD0DBD68
:090C5D0000010CED64084C70DC90
:010C6600226B
:1005F600120DAF120F02120EE8120C3D8E458F46F9
:10060600120C3D8E418F42120C3D8E438F44120CCC
:100616003D8E3F8F40120C3D8E2B8F2CE54625429A
:10062600FFE5453541FEE5442FFFE5433EFEE54047
:100636002FFFE53F3EFEEF652C7003EE652B600F46
:10064600E4FFFE120AE27BFF7A0779E2020D9C754F
:1006560069FF756A07756BEF85456C85466D7B008E
:100666007A0079641200827B007A007964120F1294
:100676007569FF756A07756BEF85436C85446D7BFD
:10068600007A0079641200827B007A007964120F86
:1006960019E4FDFCFFFE120A4F7569FF756A0775BE
:1006A6006BF285456C85466D85416E85426F7B0094
:1006B6007A0079501200827B007A007950120D9CE4
:1006C6007BFF7A0779FE120D9C8B69756A08756B3C
:1006D6000185436C85446D853F6E85406F7B007A4E
:1006E6000079501200827D017C00E4FFFE120A4F61
:1006F6007B007A007950120D9C7FDF120EDE7BFFA5
:100706007A08790D120D9C7FE87E0312000312040D
:01071600C51D
:0107170022BF
:100C67007BFF7A08790F120F277BFF7A0879121218
:100C77000F207BFF7A087915120F357BFF7A0879E9
:090C870018120F2EC2A3C2A42210
:1008E200120DAF120C677BFF7A08791B120D9C1256
:1008F2000E3D8F22E52224D0600B1470107BFF7A0C
:1009020008792280167BFF7A087927800EAF22129F
:100912000EDE1209617BFF7A08792E120D9CAE273A
:10092200AF28EE3395E0FDFC120969120ADE7BFF67
:100932007A087932120D9C120E7A7A087939120CE1
:10094200DC7BFF7A087949120D9CE52825E0FFE55A
:0B0952002733FE3395E0FDFC0209692D
:100BE0001205F6AE27AF28EE3395E0FDFC12096939
:100BF000E4FFFE120AE2120ADE7BFF7A0879521243
:0F0C00000D9CAE27AF28EE3395E0FDFC0209698D
:080F0A001208E2120BE080FB6B
:10086200020F0AE493A3F8E493A34003F68001F293
:1008720008DFF48029E493A3F85407240CC8C33397
:10088200C4540F4420C8834004F456800146F6DF66
:10089200E4800B0102040810204080900D44E47EA5
:1008A200019360BCA3FF543F30E509541FFEE4935B
:1008B200A360010ECF54C025E060A840B8E493A322
:1008C200FAE493A3F8E493A3C8C582C8CAC583CA4D
:1008D200F0A3C8C582C8CAC583CADFE9DEE780BE05
:010D60000092
:10038200BB010689828A83E0225002E722BBFE0279
:09039200E32289828A83E49322AC
:10039B00BB010CE58229F582E5833AF583E0225017
:1003AB0006E92582F8E622BBFE06E92582F8E22261
:0D03BB00E58229F582E5833AF583E493227B
:1003C800BB010689828A83F0225002F722BBFE0114
:0203D800F3220E
:1003DA00F8BB010DE58229F582E5833AF583E8F059
:1003EA00225006E92582C8F622BBFE05E92582C805
:0203FA00F222ED
:1003FC00BC000BBE0029EF8DF084FFADF022E4CCE5
:10040C00F875F008EF2FFFEE33FEEC33FCEE9DECAD
:10041C00984005FCEE9DFE0FD5F0E9E4CEFD22EDF3
:10042C00F8F5F0EE8420D21CFEADF075F008EF2F3D
:10043C00FFED33FD4007985006D5F0F222C398FD2E
:05044C000FD5F0EA22CB
:10002600E5752469F8E60575227866300702786971
:10003600E475F00112048F0203822000EB7F2ED2BA
:10004600008018EF540F2490D43440D4FF30040BB2
:10005600EF24BFB41A0050032461FFE57660021551
:10006600760579E5797002057830070D7866E475CE
:10007600F00112048FEF0203C8020C907403D2073A
:100086008003E4C207F5758B668A678968E4F576AE
:10009600F578F579E57660077F2012006180F575C1
:1000A60077FFC201C200C202C203C205C206C2086D
:1000B60012002FFF700D3007057F00120072AF7916
:1000C600AE7822B4255FC2D5C20412002FFF24D019
:1000D600B40A00501A75F00A787630D50508B6FFCE
:1000E6000106C6A426F620D5047002D20380D924C0
:1000F600CFB41A00EF5004C2E5D204020272D20154
:1001060080C6D20080C0D20280BCD2D580BAD205C9
:1001160080B47F201200612002077401B57600408A
:10012600F1120026FF12006102009AD208D2068060
:1001360095120026FB120026FA120026F94A4B7089
:100146000679437A037BFF20022EE576602A7E003D
:100156008E8275830012039B60060EEE657770F043
:10016600C2D5EBC0E0EAC0E0E9C0E0EE1202B9D0C9
:10017600E0F9D0E0FAD0E0FB120382FF60AAEBC000
:10018600E0EAC0E0E9C0E0120061D0E02401F9D065
:10019600E03400FAD0E0FBE5770460DCD577D9805F
:1001A600877BFF7A0279B5D202809C79108002792A
:1001B60008C206C2088008D2D5790A8004790AC224
:1001C600D5E577047002F577E4FAFDFEFF12002606
:1001D600FC7B08200113120026FD7B1030000A125A
:1001E6000026FE120026FF7B20EC3382D592D550E6
:1001F60013C3E43000069FFFE49EFEE42001039D46
:10020600FDE49CFCE4CBF8C201EC700CCFCECDCC67
:10021600E824F8F870F38017C3EF33FFEE33FEEDF2
:1002260033FDEC33FCEB33FB994002FB0FD8E9EBD3
:10023600300105F8D0E0C448B201C0E00AEC4D4EEA
:100246004F78207B0070C2EAB5770040BCC0E01250
:1002560002BBD0F0D0E0200104C4C0E0C4B201C0AB
:10026600F012004AD0F0D5F0EB02009A12049F017A
:10027600375301B15801084C01044201B54F01BD85
:0F0286004401BD49011D4301C35501A74601A70E
:100295004501A747036350010C2D01102E01332B97
:1002A500011423013120034C2A00CC480000012B06
:1002B5003F3F3F00790AA2D5200314300509B91044
:1002C500020404B9080104A2D52006025001042045
:1002D50002689202B576005034C0E07F20300319E1
:1002E5007F30A20272067205500F120312C202C2BB
:1002F50006C205C2087F30800F300503E9C0E01251
:100305000061300503D0E0F9D0E0B576CC300517B3
:100315007F30B9100C1200617F583004077F788058
:1003250003B908031200613002057F2D0200617FC9
:10033500202008F87F2B2006F322920280CF286E1A
:10034500756C6C2900D2011200263001F8C20178C3
:100355007630D50108F60200CC2D504349581200DD
:10036500262403B405004001E490035E9312005275
:0D037500743A120052D2037576040201B1F1
:100718008B668A678968AB66AA67A968120382FF35
:10072800120E06500D74012568F568E43567F56703
:1007380080E4D200AB66AA67A968120382FF642B23
:100748006004EFB42D1BAB660568E568AA67700204
:10075800056714F9120382642D6003D38001C392E4
:1007680000E4F569F56AAB66AA67A968120382FF17
:10077800120E5E5036AB66AA67A968120382FF3371
:1007880095E0FEEF24D0FBEE34FFFAAE69AF6A7C49
:10079800007D0A12047DEF2BF56AEE3AF5697401C3
:1007A8002568F568E43567F56780BB300006AE69F3
:0E07B800AF6A8009C3E4956AFFE49569FE22EA
:10045100EF4E6012EF60010EEDBB010B89828A83C2
:10046100F0A3DFFCDEFA2289F05007F709DFFCA9CF
:0C047100F022BBFEFCF309DFFCA9F02226
:10047D00EF8DF0A4A8F0CF8CF0A428CE8DF0A42E93
:02048D00FE224D
:10048F00FAE6FB0808E6F925F0F618E6CA3AF6226E
:10049F00D083D082F8E4937012740193700DA3A3EC
:1004AF0093F8740193F5828883E473740293686000
:0604BF00EFA3A3A380DF00
:100C9000EFB40A07740D120C9B740A309811A899CE
:100CA000B8130CC2983098FDA899C298B811F630C4
:070CB00099FDC299F599229C
:0F0E5E00EFC394304007EF943A50028001C32253
:100E0600EFC394094005EF940E4003BF2003D3803F
:030E160001C322F3
:00000001FF
