:03000000020A757C
:0C0A7500787FE4F6D8FD75817F020ABC92
:1009060053656E736F72206572726F720025640094
:1009160048756D203D2025642E256400250054650C
:100926006D203D2025642E256400430033300032BF
:10093600350030350033350035300037300053741C
:10094600617274696E672E2E2E00446174613A20BE
:10095600006F6B004D6F64653A20006175746F001F
:100966006D616E75616C004E614E00554152543A90
:10097600200068656C6C6F207561727420383035A4
:10098600310068656C6C6F2D3221003030333A25AA
:10099600732F003030343A25732F002B2B2B005247
:1009A600493A002D2D2D00554152542D52583A00EA
:1009B6003030313A007230313A003030323A00721B
:0409C60030323A0091
:100F0D0001220102290000034500002D024A0000C4
:0C0F1D000223000402250064022700C823
:100B0100755900755A00755B22755C00755D04AB03
:050B110045AA46A947BA
:060B16008B568A57895836
:100B1C00AF5DAE5CC3EF9403EE648094805031E51E
:100B2C005D2403FDE4355CFCC3EF9DEE9C5021ABD2
:100B3C0059AA5AA95B8F828E8312039BAB56AA5774
:100B4C00A9588F828E831203DA0FBF00010E80C466
:010B5C002276
:0A0B5D00AE27AF28EE3395E0FDFC53
:080B67008F748E738D728C7186
:100B6F00758902E4F58CAF74AE73AD72AC71EC4D58
:100B7F004E4F602FE4FFFED28C308DFDC28D0FBF24
:100B8F0000010EEF64044E70EE74FF2574F574E5EA
:100B9F007334FFF573E57234FFF572E57134FFF5C9
:030BAF007180C38F
:010BB2002220
:0A0E8A00D2A07F017E007D007C00F5
:100E94008F748E738D728C71758902E574F404F508
:090EA4008CD28C308DFDC28D2230
:10000300E4FDFCC3ED9FEC9E5015E4FBFA0BBB0033
:0F001300010AEB64704A70F50DBD00010C80E42A
:0100220022BB
:100FE100C2A1120E8AD2A1120E94C2A0120E94C2F4
:020FF100A1223B
:100FF300C2A1120E8CC2A0120E94D2A1120E94D2D0
:02100300A02229
:0F101700C2A0120E8CD2A1120E94C2A1D2A0229E
:0D102600120E8AD2A1120E94C2A1D2A022F5
:060F2A00EB25E044A0FFEE
:100F3000E4FEEF3392A0D2A1C2A1EF25E0FF0EBEE6
:050F400008F00210178B
:100ECF00E4FBFA120E8CD2A1A2A0E4334203EAC3D0
:100EDF0094075004EB25E0FBC2A10ABA08E5AF0363
:010EEF0022E0
:100EAD00AA07A905120FE1120F2AAF01120F30AFD9
:100EBD0002120F30120FF37F017E007D007C0002C5
:020ECD000B67B1
:040DE700AB05AA07A7
:100DEB00120FE1120F2AAF02120F30120FE1EB2597
:100DFB00E044A1FF120F30120ECFAB0712102612D8
:090E0B000FF37F0A120E8EAF03F3
:010E140022BB
:100D89008F088B098A0A890BE50C6022AB09AA0A2C
:100D9900A90B120382FFAB0DAD08120EAD05087445
:0F0DA90001250BF50BE4350AF50A150C80DA224B
:100DB8008F0E8B0F8A108911E5126022AD13AF0ECA
:100DC800120DE7AB0FAA10A911EF1203C8050E7494
:0F0DD800012511F511E43510F510151280DA22FE
:020F77008F14D5
:100F7900E4F515AB14AD15E4FF120EAD0515E51535
:050F8900C394FF40EEDF
:010F8E002240
:100EF000E4F556E4FBAD56FF120EAD0BAD56E4FF24
:0C0F0000120EAD0556E556C394FF40E705
:010F0C0022C2
:0510ED00D2AFD2AC22DD
:0C103300758920758DFD759850D28E22B5
:081097008F993099FDC29922E6
:08109F003098FDC298AF9922C0
:060E66008B568A578958E3
:100E6C00E4FDFCAB56AA57A9588D828C8312039BC8
:0D0E7C00FF600A1210970DBD00010C80E60A
:010E89002246
:0D0C9C001210337B007A00792D7D077C005B
:0A0CA9008B568A5789588C598D5AD2
:100CB300E4FDFCC3ED955AE5596480F8EC64809833
:100CC3005018AB56AA57A9588D828C8312039BFFE9
:0A0CD3001210970DBD00010C80D92E
:010CDD0022F4
:060C52008B568A578958F9
:100C5800E4FDFC12109F8F59E559640D600BE559AE
:100C6800640A6005E559B42F10AB56AA57A9588DE8
:100C7800828C83E41203DA8016AB56AA57A9588DE2
:100C8800828C83E5591203DA0DBD00010C80C4AED5
:030C980004AF05A1
:010C9B002236
:030023000210E1E7
:0610E100859990C29832CF
:100D56008B6C8A6D896E8C6F8D70AB6CAA6DA96E6B
:100D6600120382FF601CAD70E4FB120EAD74012508
:100D76006EF56EE4356DF56D0570E57070DC056F2A
:030D860080D822F0
:0B104B00751202E4F5137F07020DB8D8
:0710B7007D077C00020D56CD
:0B105600751202E4F5137F05020DB8CF
:0710BE007D057C00020D56C8
:0B106100751202E4F5137F03020DB8C6
:0710C5007D037C00020D56C3
:0B106C00751202E4F5137F01020DB8BD
:0710CC007D017C00020D56BE
:0B107700751202E4F5137F0B020DB8A8
:0710D3007D0B7C00020D56AD
:0B108200751202E4F5137F09020DB89F
:0710DA007D097C00020D56A8
:10100500E4FDFF120DE7EF64306006BF3101227F7A
:0110150032A8
:0110160022B7
:0610E700E4FBFD020EAD6A
:0C103F00121005BF32057F311210E722AD
:100F8F008F80C2A6C2A5D2A77F087E007D007C00FD
:060F9F00120B67C2A7223D
:100FA5008F80D2A6C2A5D2A77F087E007D007C00D7
:060FB500120B67C2A72227
:060F45007B007A007956E2
:100F4B00120382FF600C120FA5740129F9E43AFA1F
:030F5B0080EE2203
:070C03007D017C00E4FFFE0F
:040C0A008E6C8F6DF0
:100C0E00E4FBFAEC701FED14600E14600F1460100C
:100C1E00240370117F80800A7FC080067F9480023B
:100C2E007FD4120F8FE4FAFBC3EB956DE56C6480F5
:100C3E00F8EA648098500C7F14120F8F0BBB0001E2
:030C4E000A80E534
:010C51002280
:040CDE007F017E0014
:040CE2008F828E83EC
:100CE600E4FBFAAD82AC83FFFE120C0AE4FAFB7554
:100CF6008020D2A6C2A5D2A77F027E007D007C00FE
:100D0600120B67C2A70BBB00010AEB64104A70DF27
:0A0D1600AD82AC83E4FFFE020C0A7C
:100F5E007F38120F8F7F01120F8F7F80120F8F7FBE
:090F6E0006120F8F7F0C020F8F99
:100BB300AB07AA067C007D641203FCEF2430FDE43E
:100BC3003EFCED64304C6007EF2430FF120FA57C30
:100BD300007D64AF03AE021203FC7E007F0ACFCD1B
:100BE300CFCECCCE1203FCEF2430FF120FA5AE0202
:100BF300AF037C007D0A1203FCED2430FF020FA536
:100FBB00758901758CB8758A0CD28C308DFDC28CFD
:030FCB00C28D22B2
:100FCE00758901758CFF758AF1D28C308DFDC28CBE
:030FDE00C28D229F
:0810A700C2B7120FBBD2B72241
:0A108D0020B7FD30B7FD20B7FD22AB
:100E1500E4FFFEFDFC30B7FD120FCEEF25E0FFEE3F
:100E250033FE30B706EF4401FF800020B7FD0DBD4E
:090E350000010CED64084C70DCB6
:010E3E002291
:1007FA00120F5E1210A712108D120E158E438F441F
:10080A00120E158E3F8F40120E158E418F42120E18
:10081A00158E3D8F3E120E158E2B8F2CE5442540EA
:10082A00FFE543353FFEE5422FFFE5413EFEE53E4B
:10083A002FFFE53D3EFEEF652C7003EE652B600F42
:10084A00E4FFFE120CE27BFF7A097906020F4B7570
:10085A006FFF7570097571138543728544737B0048
:10086A007A00796A1200827B007A00796A1210B7DC
:10087A00756FFF7570097571138541728542737BB7
:10088A00007A00796A1200827B007A00796A121073
:10089A00BEE4FDFCFFFE120C0A756FFF7570097548
:1008AA007116854372854473853F748540757B0054
:1008BA007A007956120082120F457BFF7A09792253
:1008CA00120F4B8B6F7570097571248541728542C1
:1008DA0073853D74853E757B007A007956120082D5
:1008EA00120C03120F457FDF120FA57BFF7A0979DD
:0B08FA0030120F4B7FE87E031200035A
:0109050022CF
:100D20007BFF7A0979321210CC7BFF7A0979351270
:100D300010C57BFF7A0979381210BE7BFF7A0979DA
:100D40003B1210B77BFF7A09793E1210DA7BFF7AEB
:060D50000979410210D3F5
:1009CA00120F5EE4FDFCFFFE120C0A7BFF7A097926
:1009DA0044120F4B120C037BFF7A097950120F4B0A
:1009EA00120EF012103F7BFF7A097957120F4B1241
:1009FA000B5D120CDE120D207BFF7A09795A120F59
:100A0A004B1210058F22E52224D0600B1470107B44
:100A1A00FF7A097961801E7BFF7A0979668016AFB1
:100A2A0022120FA57F087E007D007C00120B677BD7
:100A3A00FF7A09796D120F4B120B5D120CDE7BFFE8
:100A4A007A097971120F4B1210337A097978120EDA
:100A5A00667BFF7A097988120F4BE52825E0FFE5C6
:0B0A6A002733FE3395E0FDFC020B6714
:10064E001207FA120B5D7E007F107D007B007A0090
:10065E00792D1205EC756FFF7570097571917572B4
:10066E00007573007574527B007A00792D1200822A
:10067E00120C9CAE23AF24120B617E007F107D0006
:10068E007B007A00792D1205EC756FFF7570097578
:10069E0071997572007573007574527B007A0079CA
:1006AE002D120082120C9C120B5DE4FFFE120CE266
:1006BE00120CDE7BFF7A0979A1120F4B120B5DE44F
:1006CE00F529F52AFFFE120CE27BFF7A0979A512B5
:1006DE000F4BA298E433FF120FA5121033AB45AAAD
:1006EE0046A947120C528E298F2A7F527E037D0017
:1006FE007C00120B67E4FFFE120CE2120CDE7BFF95
:10070E007A0979A9120F4BD3E52A9400E529648062
:10071E00948050030207ED7E007F047D007B007AFB
:10072E0000794E1205ECE4F54AF54BAF4B742D2FC4
:10073E00F8E6FE744E2FF8A606054BE54B70020543
:10074E004A6404454A70E4E4FFFE120CE27BFF7A31
:10075E000979AD120F4B120CDE7B007A00792D1247
:10076E000F4B784E7C007D007BFF7A0979B612051F
:10077E00CFEF7033853122AF221210E71210058FA2
:10078E00227559FF755A09755BBBE4F55CF55D1270
:10079E000B10120B01121033AB45AA46A9477D056B
:1007AE007C00120CA98031788F7C0F7DFF7BFF7A45
:1007BE000979C01205CFEF701F7559FF755A09756B
:1007CE005BC5F55CF55D120B10120B01121033AB0D
:1007DE0045AA46A947120E66AE23AF24120B61AE90
:0C07EE0027AF28EE3395E0FDFC020B67FE
:0810AF001209CA12064E80FB73
:100A81000210AFE493A3F8E493A34003F68001F2CC
:100A910008DFF48029E493A3F85407240CC8C33376
:100AA100C4540F4420C8834004F456800146F6DF45
:100AB100E4800B0102040810204080900F0DE47EB9
:100AC100019360BCA3FF543F30E509541FFEE4933A
:100AD100A360010ECF54C025E060A840B8E493A301
:100AE100FAE493A3F8E493A3C8C582C8CAC583CA2C
:100AF100F0A3C8C582C8CAC583CADFE9DEE780BEE4
:010F290000C7
:10038200BB010689828A83E0225002E722BBFE0279
:09039200E32289828A83E49322AC
:10039B00BB010CE58229F582E5833AF583E0225017
:1003AB0006E92582F8E622BBFE06E92582F8E22261
:0D03BB00E58229F582E5833AF583E493227B
:1003C800BB010689828A83F0225002F722BBFE0114
:0203D800F3220E
:1003DA00F8BB010DE58229F582E5833AF583E8F059
:1003EA00225006E92582C8F622BBFE05E92582C805
:0203FA00F222ED
:1003FC00BC000BBE0029EF8DF084FFADF022E4CCE5
:10040C00F875F008EF2FFFEE33FEEC33FCEE9DECAD
:10041C00984005FCEE9DFE0FD5F0E9E4CEFD22EDF3
:10042C00F8F5F0EE8420D21CFEADF075F008EF2F3D
:10043C00FFED33FD4007985006D5F0F222C398FD2E
:05044C000FD5F0EA22CB
:10002600E57B246FF8E6057B22786C300702786F53
:10003600E475F0011206180203822000EB7F2ED22F
:10004600008018EF540F2490D43440D4FF30040BB2
:10005600EF24BFB41A0050032461FFE57C6002154B
:100066007C057FE57F7002057E30070D786CE475B0
:10007600F001120618EF0203C8020E3F7403D207FE
:100086008003E4C207F57B8B6C8A6D896EE4F57C90
:10009600F57EF57FE57C60077F2012006180F575AF
:1000A6007DFFC201C200C202C203C205C206C20867
:1000B60012002FFF700D3007057F00120072AF7F10
:1000C600AE7E22B4255FC2D5C20412002FFF24D013
:1000D600B40A00501A75F00A787C30D50508B6FFC8
:1000E6000106C6A426F620D5047002D20380D924C0
:1000F600CFB41A00EF5004C2E5D204020272D20154
:1001060080C6D20080C0D20280BCD2D580BAD205C9
:1001160080B47F201200612002077401B57C004084
:10012600F1120026FF12006102009AD208D2068060
:1001360095120026FB120026FA120026F94A4B7089
:100146000679437A037BFF20022EE57C602A7E0037
:100156008E8275830012039B60060EEE657D70F03D
:10016600C2D5EBC0E0EAC0E0E9C0E0EE1202B9D0C9
:10017600E0F9D0E0FAD0E0FB120382FF60AAEBC000
:10018600E0EAC0E0E9C0E0120061D0E02401F9D065
:10019600E03400FAD0E0FBE57D0460DCD57DD98053
:1001A600877BFF7A0279B5D202809C79108002792A
:1001B60008C206C2088008D2D5790A8004790AC224
:1001C600D5E57D047002F57DE4FAFDFEFF120026FA
:1001D600FC7B08200113120026FD7B1030000A125A
:1001E6000026FE120026FF7B20EC3382D592D550E6
:1001F60013C3E43000069FFFE49EFEE42001039D46
:10020600FDE49CFCE4CBF8C201EC700CCFCECDCC67
:10021600E824F8F870F38017C3EF33FFEE33FEEDF2
:1002260033FDEC33FCEB33FB994002FB0FD8E9EBD3
:10023600300105F8D0E0C448B201C0E00AEC4D4EEA
:100246004F78207B0070C2EAB57D0040BCC0E0124A
:1002560002BBD0F0D0E0200104C4C0E0C4B201C0AB
:10026600F012004AD0F0D5F0EB02009A12062801EF
:10027600375301B15801084C01044201B54F01BD85
:0F0286004401BD49011D4301C35501A74601A70E
:100295004501A747036350010C2D01102E01332B97
:1002A500011423013120034C2A00CC480000012B06
:1002B5003F3F3F00790AA2D5200314300509B91044
:1002C500020404B9080104A2D52006025001042045
:1002D50002689202B57C005034C0E07F20300319DB
:1002E5007F30A20272067205500F120312C202C2BB
:1002F50006C205C2087F30800F300503E9C0E01251
:100305000061300503D0E0F9D0E0B57CCC300517AD
:100315007F30B9100C1200617F583004077F788058
:1003250003B908031200613002057F2D0200617FC9
:10033500202008F87F2B2006F322920280CF286E1A
:10034500756C6C2900D2011200263001F8C20178C3
:100355007C30D50108F60200CC2D504349581200D7
:10036500262403B405004001E490035E9312005275
:0D037500743A120052D203757C040201B1EB
:10045100E3F5F009E208B5F06D606B80F3E3F5F0C8
:1004610009E608B5F060605E80F387F009E608B53B
:10047100F054605280F487F009E208B5F048604614
:1004810080F488828C8387F009E0A3B5F038603668
:1004910080F488828C8387F009E493A3B5F0276008
:1004A1002580F388828C83E3F5F009E0A3B5F0168B
:1004B100601480F388828C83E3F5F009E493A3B59B
:1004C100F004600280F202057C808580E7808E80E6
:1004D100D2803C8015806C807E809B80B5808B8033
:1004E100A1804F8070803A02058889828A83ECFA64
:1004F100E493F5F0A3C8C582C8CCC583CCE493A32B
:10050100C8C582C8CCC583CCB5F070606E80E18966
:10051100828A83E493F5F0A3E208B5F05E605C8023
:10052100F289828A83E0F5F0A3E608B5F04D604BCD
:1005310080F389828A83E0F5F0A3E208B5F03C609C
:100541003A80F389828A83E493F5F0A3E608B5F053
:100551002A602880F2805389828A83ECFAE493F539
:10056100F0A3C8C582C8CCC583CCE0A3C8C582C8E6
:10057100CCC583CCB5F004600280E27FFFB5F00208
:100581000F2240027F012289828A83ECFAE0F5F092
:10059100A3C8C582C8CCC583CCE0A3C8C582C8CCDA
:1005A100C583CCB5F0D560D380E389828A83ECFA28
:1005B100E0F5F0A3C8C582C8CCC583CCE493A3C839
:1005C100C582C8CCC583CCB5F0B160AF80E288F0FC
:1005D100ED2402B4040050A3F582EB2402B404001C
:0B05E100509923234582239004CA7325
:1005EC00EF4E6012EF60010EEDBB010B89828A8326
:1005FC00F0A3DFFCDEFA2289F05007F709DFFCA933
:0C060C00F022BBFEFCF309DFFCA9F02289
:10061800FAE6FB0808E6F925F0F618E6CA3AF622E3
:10062800D083D082F8E4937012740193700DA3A361
:1006380093F8740193F5828883E473740293686075
:06064800EFA3A3A380DF75
:100E3F00EFB40A07740D120E4A740A309811A8996C
:100E4F00B8130CC2983098FDA899C298B811F63013
:070E5F0099FDC299F59922EB
:00000001FF
